S00D00004C414220332E73726563F5
S113000071C0000079C0000077C0000075C0000016
S113001073C0000071C000006FC000006DC000001C
S11300206BC0000069C0000067C0000065C000002C
S113003063C0000061C000005FC000005DC000003C
S11300405BC0000059C0000057C0000055C000004C
S113005053C0000051C000004FC000004DC000005C
S11300604BC0000049C0000047C0000045C000006C
S113007043C0000041C000003FC000003DC000007C
S11300803BC0000039C0000037C0000035C000008C
S113009033C0000031C000002FC000002DC000009C
S11300A02BC0000029C0000027C0000025C00000AC
S11300B023C0000021C000001FC000001DC00000BC
S11300C01BC0000019C0000017C0000015C00000CC
S11300D013C0000011C000000FC000000DC00000DC
S11300E00BC0000011241FBECFEFD1E2DEBFCDBF95
S11300F000E00CBF5DD092C083CF81B18FEF81B996
S113010097B187B90895ECE7F0E08081806480833B
S1130110EAE7F0E080818068808380818760808363
S11301200895ECE7F0E09081907F8F70892B8083B5
S1130130EAE7F0E080818064808380917A0086FD24
S1130140FCCF809178009091790008950F931F93CC
S1130150CF93DF938C0168EE73E039D0CB012AE0B2
S113016030E0B90134D0EC01C80164E670E02FD06E
S1130170CB01B9012CD0E82FC801B90128D0482FF0
S1130180CB01B90124D0C295D295D07FDC27C07FA2
S1130190DC27EC2BE2B982959295907F9827807F9B
S11301A09827482B48B9DF91CF911F910F9108955B
S11301B0A4DFA9DF80E0B5DFC9DF2FEF83ED90E393
S11301C0215080409040E1F700C00000F3CF97FB3E
S11301D0072E16F4009406D077FD08D00BD007FC48
S11301E005D03EF4909581959F4F08957095619543
S11301F07F4F0895AA1BBB1B51E107C0AA1FBB1F59
S1130200A617B70710F0A61BB70B881F991F5A959E
S1130210A9F780959095BC01CD010895F894FFCF7E
S9030000FC
