:100000000C945A000C9464000C9464000C946400EA
:100010000C9464000C9464000C9464000C946400D0
:100020000C9464000C9464000C9464000C946400C0
:100030000C9464000C9464000C9464000C946400B0
:100040000C9464000C9464000C9464000C946400A0
:100050000C9464000C94A7000C9464000C9464004D
:100060000C9464000C9464000C9464000C94640080
:100070000C9464000C9464000C9464000C94640070
:100080000C9464000C9464000C9464000C94640060
:100090000C9464000C9464000C9464000C94640050
:1000A0000C9464000C9464000C9464000C94640040
:1000B0000C94640011241FBECFEFD8E0DEBFCDBF8B
:1000C0000E9483000C94BA000C940000EAE7F0E070
:1000D000808180688083808187608083ACE7B0E026
:1000E0008C918F738C938C91807F8C9380818860AE
:1000F0008083808180628083EBE7F0E08081887F6D
:100100008083789408958FEF8AB980E284B90E9441
:100110006600EAE7F0E080818064808385B18062D8
:1001200085B92FEF8BE49DE1215080409040E1F7AD
:1001300000C0000085B18F7D85B92FEF8BE49DE174
:10014000215080409040E1F700C00000E7CF1F92AF
:100150000F920FB60F9211248F939F938091780086
:10016000909179008BB99F918F910F900FBE0F9056
:080170001F901895F894FFCFD1
:00000001FF
