:100000000C9434000C943E000C943E000C943E0082
:100010000C943E000C943E000C943E000C943E0068
:100020000C943E000C943E000C943E000C943E0058
:100030000C943E000C943E000C943E000C943E0048
:100040000C943E000C943E000C943E000C943E0038
:100050000C943E000C943E000C943E000C943E0028
:100060000C943E000C943E0011241FBECFEFD8E04C
:10007000DEBFCDBF0E9440000C945E000C940000D7
:10008000ECE7F0E080818F7380838081807F8083C4
:10009000EAE7F0E08081876880838FEF8AB9EAE73A
:1000A000F0E080818064808380917A0086FDFCCFBF
:1000B00080917800909179008BB9F1CFF894FFCFBF
:00000001FF
